{
  "_format": "hh-sol-artifact-1",
  "contractName": "StakingContract",
  "sourceName": "contracts/StakingContract.sol",
  "abi": [
    {
      "inputs": [],
      "stateMutability": "nonpayable",
      "type": "constructor"
    },
    {
      "inputs": [],
      "name": "EnforcedPause",
      "type": "error"
    },
    {
      "inputs": [],
      "name": "ExpectedPause",
      "type": "error"
    },
    {
      "inputs": [
        {
          "internalType": "address",
          "name": "owner",
          "type": "address"
        }
      ],
      "name": "OwnableInvalidOwner",
      "type": "error"
    },
    {
      "inputs": [
        {
          "internalType": "address",
          "name": "account",
          "type": "address"
        }
      ],
      "name": "OwnableUnauthorizedAccount",
      "type": "error"
    },
    {
      "inputs": [],
      "name": "ReentrancyGuardReentrantCall",
      "type": "error"
    },
    {
      "anonymous": false,
      "inputs": [
        {
          "indexed": false,
          "internalType": "bool",
          "name": "paused",
          "type": "bool"
        }
      ],
      "name": "ContractPaused",
      "type": "event"
    },
    {
      "anonymous": false,
      "inputs": [
        {
          "indexed": true,
          "internalType": "address",
          "name": "previousOwner",
          "type": "address"
        },
        {
          "indexed": true,
          "internalType": "address",
          "name": "newOwner",
          "type": "address"
        }
      ],
      "name": "OwnershipTransferred",
      "type": "event"
    },
    {
      "anonymous": false,
      "inputs": [
        {
          "indexed": false,
          "internalType": "address",
          "name": "account",
          "type": "address"
        }
      ],
      "name": "Paused",
      "type": "event"
    },
    {
      "anonymous": false,
      "inputs": [
        {
          "indexed": false,
          "internalType": "address",
          "name": "user",
          "type": "address"
        },
        {
          "indexed": false,
          "internalType": "uint256",
          "name": "amount",
          "type": "uint256"
        }
      ],
      "name": "RewardPaymentFailed",
      "type": "event"
    },
    {
      "anonymous": false,
      "inputs": [
        {
          "indexed": false,
          "internalType": "uint256",
          "name": "newRate",
          "type": "uint256"
        }
      ],
      "name": "RewardRateUpdated",
      "type": "event"
    },
    {
      "anonymous": false,
      "inputs": [
        {
          "indexed": true,
          "internalType": "address",
          "name": "user",
          "type": "address"
        },
        {
          "indexed": false,
          "internalType": "uint256",
          "name": "amount",
          "type": "uint256"
        }
      ],
      "name": "RewardsClaimed",
      "type": "event"
    },
    {
      "anonymous": false,
      "inputs": [
        {
          "indexed": false,
          "internalType": "uint256",
          "name": "amount",
          "type": "uint256"
        }
      ],
      "name": "RewardsDeposited",
      "type": "event"
    },
    {
      "anonymous": false,
      "inputs": [
        {
          "indexed": true,
          "internalType": "address",
          "name": "user",
          "type": "address"
        },
        {
          "indexed": false,
          "internalType": "uint256",
          "name": "amount",
          "type": "uint256"
        }
      ],
      "name": "Staked",
      "type": "event"
    },
    {
      "anonymous": false,
      "inputs": [
        {
          "indexed": false,
          "internalType": "address",
          "name": "account",
          "type": "address"
        }
      ],
      "name": "Unpaused",
      "type": "event"
    },
    {
      "anonymous": false,
      "inputs": [
        {
          "indexed": true,
          "internalType": "address",
          "name": "user",
          "type": "address"
        },
        {
          "indexed": false,
          "internalType": "uint256",
          "name": "amount",
          "type": "uint256"
        }
      ],
      "name": "Unstaked",
      "type": "event"
    },
    {
      "inputs": [],
      "name": "PRECISION",
      "outputs": [
        {
          "internalType": "uint256",
          "name": "",
          "type": "uint256"
        }
      ],
      "stateMutability": "view",
      "type": "function"
    },
    {
      "inputs": [],
      "name": "SECONDS_PER_YEAR",
      "outputs": [
        {
          "internalType": "uint256",
          "name": "",
          "type": "uint256"
        }
      ],
      "stateMutability": "view",
      "type": "function"
    },
    {
      "inputs": [],
      "name": "availableRewardFunds",
      "outputs": [
        {
          "internalType": "uint256",
          "name": "",
          "type": "uint256"
        }
      ],
      "stateMutability": "view",
      "type": "function"
    },
    {
      "inputs": [
        {
          "internalType": "address",
          "name": "user",
          "type": "address"
        }
      ],
      "name": "calculateRewards",
      "outputs": [
        {
          "internalType": "uint256",
          "name": "",
          "type": "uint256"
        }
      ],
      "stateMutability": "view",
      "type": "function"
    },
    {
      "inputs": [],
      "name": "claimRewards",
      "outputs": [],
      "stateMutability": "nonpayable",
      "type": "function"
    },
    {
      "inputs": [],
      "name": "depositRewards",
      "outputs": [],
      "stateMutability": "payable",
      "type": "function"
    },
    {
      "inputs": [
        {
          "internalType": "uint256",
          "name": "amount",
          "type": "uint256"
        }
      ],
      "name": "emergencyWithdraw",
      "outputs": [],
      "stateMutability": "nonpayable",
      "type": "function"
    },
    {
      "inputs": [],
      "name": "getContractBalance",
      "outputs": [
        {
          "internalType": "uint256",
          "name": "",
          "type": "uint256"
        }
      ],
      "stateMutability": "view",
      "type": "function"
    },
    {
      "inputs": [],
      "name": "getRewardStats",
      "outputs": [
        {
          "internalType": "uint256",
          "name": "deposited",
          "type": "uint256"
        },
        {
          "internalType": "uint256",
          "name": "claimed",
          "type": "uint256"
        },
        {
          "internalType": "uint256",
          "name": "available",
          "type": "uint256"
        }
      ],
      "stateMutability": "view",
      "type": "function"
    },
    {
      "inputs": [
        {
          "internalType": "address",
          "name": "user",
          "type": "address"
        }
      ],
      "name": "getRewards",
      "outputs": [
        {
          "internalType": "uint256",
          "name": "",
          "type": "uint256"
        }
      ],
      "stateMutability": "view",
      "type": "function"
    },
    {
      "inputs": [
        {
          "internalType": "address",
          "name": "user",
          "type": "address"
        }
      ],
      "name": "getStakedAmount",
      "outputs": [
        {
          "internalType": "uint256",
          "name": "",
          "type": "uint256"
        }
      ],
      "stateMutability": "view",
      "type": "function"
    },
    {
      "inputs": [],
      "name": "getTotalStaked",
      "outputs": [
        {
          "internalType": "uint256",
          "name": "",
          "type": "uint256"
        }
      ],
      "stateMutability": "view",
      "type": "function"
    },
    {
      "inputs": [],
      "name": "lastUpdateTime",
      "outputs": [
        {
          "internalType": "uint256",
          "name": "",
          "type": "uint256"
        }
      ],
      "stateMutability": "view",
      "type": "function"
    },
    {
      "inputs": [],
      "name": "owner",
      "outputs": [
        {
          "internalType": "address",
          "name": "",
          "type": "address"
        }
      ],
      "stateMutability": "view",
      "type": "function"
    },
    {
      "inputs": [],
      "name": "pause",
      "outputs": [],
      "stateMutability": "nonpayable",
      "type": "function"
    },
    {
      "inputs": [],
      "name": "paused",
      "outputs": [
        {
          "internalType": "bool",
          "name": "",
          "type": "bool"
        }
      ],
      "stateMutability": "view",
      "type": "function"
    },
    {
      "inputs": [],
      "name": "renounceOwnership",
      "outputs": [],
      "stateMutability": "nonpayable",
      "type": "function"
    },
    {
      "inputs": [],
      "name": "rewardPerTokenStored",
      "outputs": [
        {
          "internalType": "uint256",
          "name": "",
          "type": "uint256"
        }
      ],
      "stateMutability": "view",
      "type": "function"
    },
    {
      "inputs": [],
      "name": "rewardRate",
      "outputs": [
        {
          "internalType": "uint256",
          "name": "",
          "type": "uint256"
        }
      ],
      "stateMutability": "view",
      "type": "function"
    },
    {
      "inputs": [
        {
          "internalType": "uint256",
          "name": "newRate",
          "type": "uint256"
        }
      ],
      "name": "setRewardRate",
      "outputs": [],
      "stateMutability": "nonpayable",
      "type": "function"
    },
    {
      "inputs": [],
      "name": "stake",
      "outputs": [],
      "stateMutability": "payable",
      "type": "function"
    },
    {
      "inputs": [
        {
          "internalType": "address",
          "name": "",
          "type": "address"
        }
      ],
      "name": "stakes",
      "outputs": [
        {
          "internalType": "uint256",
          "name": "amount",
          "type": "uint256"
        },
        {
          "internalType": "uint256",
          "name": "timestamp",
          "type": "uint256"
        },
        {
          "internalType": "uint256",
          "name": "lastRewardTime",
          "type": "uint256"
        },
        {
          "internalType": "uint256",
          "name": "rewardDebt",
          "type": "uint256"
        }
      ],
      "stateMutability": "view",
      "type": "function"
    },
    {
      "inputs": [],
      "name": "totalRewardsClaimed",
      "outputs": [
        {
          "internalType": "uint256",
          "name": "",
          "type": "uint256"
        }
      ],
      "stateMutability": "view",
      "type": "function"
    },
    {
      "inputs": [],
      "name": "totalRewardsDeposited",
      "outputs": [
        {
          "internalType": "uint256",
          "name": "",
          "type": "uint256"
        }
      ],
      "stateMutability": "view",
      "type": "function"
    },
    {
      "inputs": [],
      "name": "totalStaked",
      "outputs": [
        {
          "internalType": "uint256",
          "name": "",
          "type": "uint256"
        }
      ],
      "stateMutability": "view",
      "type": "function"
    },
    {
      "inputs": [
        {
          "internalType": "address",
          "name": "newOwner",
          "type": "address"
        }
      ],
      "name": "transferOwnership",
      "outputs": [],
      "stateMutability": "nonpayable",
      "type": "function"
    },
    {
      "inputs": [],
      "name": "unpause",
      "outputs": [],
      "stateMutability": "nonpayable",
      "type": "function"
    },
    {
      "inputs": [
        {
          "internalType": "uint256",
          "name": "amount",
          "type": "uint256"
        }
      ],
      "name": "unstake",
      "outputs": [],
      "stateMutability": "nonpayable",
      "type": "function"
    },
    {
      "stateMutability": "payable",
      "type": "receive"
    }
  ],
  "bytecode": "0x6080604052600c60045534801561001557600080fd5b506001600055338061004157604051631e4fbdf760e01b81526000600482015260240160405180910390fd5b61004a81610054565b50426006556100a6565b600180546001600160a01b038381166001600160a01b0319831681179093556040519116919082907f8be0079c531659141344cd1fd0a4f28419497f9722a3daafe3b4186f6b6457e090600090a35050565b6113aa806100b56000396000f3fe6080604052600436106101bb5760003560e01c8063715018a6116100ec578063a34b0f761161008a578063d037709411610064578063d0377094146104aa578063df136d65146104bf578063e6a69ab8146104d5578063f2fde38b146104ed57600080fd5b8063a34b0f7614610462578063aaf5eb6814610478578063c8f33c911461049457600080fd5b8063817b1cd2116100c6578063817b1cd2146103ef5780638456cb59146104055780638da5cb5b1461041a5780639e447fc61461044257600080fd5b8063715018a6146103a457806379ee54f7146103b95780637b0a47ee146103d957600080fd5b80633a4b66f1116101595780635312ea8e116101335780635312ea8e146103275780635c975abb1461034757806364ab8675146103715780636f9fb98a1461039157600080fd5b80633a4b66f1146102d45780633f4ba83a146102dc5780634da6a556146102f157600080fd5b80631f4c74fd116101955780631f4c74fd146102595780632e17de781461026f5780633217e57a1461028f578063372500ab146102bf57600080fd5b80630917e776146101c7578063152111f7146101eb57806316934fc4146101f557600080fd5b366101c257005b600080fd5b3480156101d357600080fd5b506003545b6040519081526020015b60405180910390f35b6101f361050d565b005b34801561020157600080fd5b506102396102103660046112b6565b600260208190526000918252604090912080546001820154928201546003909201549092919084565b6040805194855260208501939093529183015260608201526080016101e2565b34801561026557600080fd5b506101d860075481565b34801561027b57600080fd5b506101f361028a3660046112e6565b6105b0565b34801561029b57600080fd5b506102a46108f6565b604080519384526020840192909252908201526060016101e2565b3480156102cb57600080fd5b506101f361090d565b6101f3610b22565b3480156102e857600080fd5b506101f3610c56565b3480156102fd57600080fd5b506101d861030c3660046112b6565b6001600160a01b031660009081526002602052604090205490565b34801561033357600080fd5b506101f36103423660046112e6565b610c97565b34801561035357600080fd5b50600154600160a01b900460ff1660405190151581526020016101e2565b34801561037d57600080fd5b506101d861038c3660046112b6565b610da6565b34801561039d57600080fd5b50476101d8565b3480156103b057600080fd5b506101f3610ecf565b3480156103c557600080fd5b506101d86103d43660046112b6565b610ee1565b3480156103e557600080fd5b506101d860045481565b3480156103fb57600080fd5b506101d860035481565b34801561041157600080fd5b506101f3610ef2565b34801561042657600080fd5b506001546040516001600160a01b0390911681526020016101e2565b34801561044e57600080fd5b506101f361045d3660046112e6565b610f33565b34801561046e57600080fd5b506101d860085481565b34801561048457600080fd5b506101d8670de0b6b3a764000081565b3480156104a057600080fd5b506101d860065481565b3480156104b657600080fd5b506101d8610fc1565b3480156104cb57600080fd5b506101d860055481565b3480156104e157600080fd5b506101d86301e1338081565b3480156104f957600080fd5b506101f36105083660046112b6565b610ff8565b610515611033565b600034116105595760405162461bcd60e51b815260206004820152600c60248201526b16995c9bc819195c1bdcda5d60a21b60448201526064015b60405180910390fd5b6105636000611060565b34600760008282546105759190611315565b90915550506040513481527f4e9221f2cca6ca0397acc6004ea0b716798254f5abcf53924fab34f0373e5d4e906020015b60405180910390a1565b6105b8611152565b6105c061117c565b6000811161061e5760405162461bcd60e51b815260206004820152602560248201527f556e7374616b6520616d6f756e74206d75737420626520677265617465722074604482015264068616e20360dc1b6064820152608401610550565b336000908152600260205260409020805482111561067e5760405162461bcd60e51b815260206004820152601a60248201527f496e73756666696369656e74207374616b656420616d6f756e740000000000006044820152606401610550565b61068733611060565b600061069233610da6565b9050828260000160008282546106a89190611328565b90915550504260028301556005548254670de0b6b3a7640000916106cb9161133b565b6106d59190611352565b6003830155815460000361070957336000908152600260208190526040822082815560018101839055908101829055600301555b826003600082825461071b9190611328565b909155505080158015906107365750610732610fc1565b8111155b1561081957806008600082825461074d9190611315565b9091555050604051600090339083908381818185875af1925050503d8060008114610794576040519150601f19603f3d011682016040523d82523d6000602084013e610799565b606091505b5050905080156107dd5760405182815233907ffc30cddea38e2bf4d6ea7d3f9ed3b6ad7f176419f4963bd81318067a4aee73fe9060200160405180910390a2610817565b60408051338152602081018490527faa90c2a7acb9494fa0d57c04c0e449b866d0f0fbe0f77ac012babd73c9d54f25910160405180910390a15b505b604051600090339085908381818185875af1925050503d806000811461085b576040519150601f19603f3d011682016040523d82523d6000602084013e610860565b606091505b50509050806108b15760405162461bcd60e51b815260206004820152601860248201527f556e7374616b653a207472616e73666572206661696c656400000000000000006044820152606401610550565b60405184815233907f0f5bb82176feb1b5e747e28471aa92156a04d9f3ab9f45f28e2d704232b93f759060200160405180910390a25050506108f36001600055565b50565b6007546008546000610906610fc1565b9050909192565b610915611152565b61091d61117c565b61092633611060565b600061093133610da6565b9050600081116109795760405162461bcd60e51b81526020600482015260136024820152724e6f207265776172647320746f20636c61696d60681b6044820152606401610550565b6000610983610fc1565b9050600081116109d55760405162461bcd60e51b815260206004820152601960248201527f4e6f207265776172642066756e647320617661696c61626c65000000000000006044820152606401610550565b60008183116109e457826109e6565b815b905080600860008282546109fa9190611315565b909155505033600090815260026020819052604090912042918101919091556005549054670de0b6b3a764000091610a319161133b565b610a3b9190611352565b3360008181526002602052604080822060030193909355915183908381818185875af1925050503d8060008114610a8e576040519150601f19603f3d011682016040523d82523d6000602084013e610a93565b606091505b5050905080610add5760405162461bcd60e51b815260206004820152601660248201527514995dd85c99081d1c985b9cd9995c8819985a5b195960521b6044820152606401610550565b60405182815233907ffc30cddea38e2bf4d6ea7d3f9ed3b6ad7f176419f4963bd81318067a4aee73fe9060200160405180910390a250505050610b206001600055565b565b610b2a611152565b610b3261117c565b60003411610b8e5760405162461bcd60e51b815260206004820152602360248201527f5374616b6520616d6f756e74206d75737420626520677265617465722074686160448201526206e20360ec1b6064820152608401610550565b610b9733611060565b3360009081526002602052604081208054909103610bb6574260018201555b34816000016000828254610bca9190611315565b90915550504260028201556005548154670de0b6b3a764000091610bed9161133b565b610bf79190611352565b81600301819055503460036000828254610c119190611315565b909155505060405134815233907f9e71bc8eea02a63969f509818f2dafb9254532904319f9dbda79b67bd34a5f3d9060200160405180910390a250610b206001600055565b610c5e611033565b610c666111a7565b604051600081527f752d7e161ff5146f80e3820893176eb40532811e5e20400dfdde57455213706a906020016105a6565b610c9f611033565b6000610ca9610fc1565b905080821115610cfb5760405162461bcd60e51b815260206004820152601760248201527f4578636565647320617661696c61626c652066756e64730000000000000000006044820152606401610550565b6000610d0f6001546001600160a01b031690565b6001600160a01b03168360405160006040518083038185875af1925050503d8060008114610d59576040519150601f19603f3d011682016040523d82523d6000602084013e610d5e565b606091505b5050905080610da15760405162461bcd60e51b815260206004820152600f60248201526e15da5d1a191c985dc819985a5b1959608a1b6044820152606401610550565b505050565b6001600160a01b03811660009081526002602081815260408084208151608081018352815480825260018301549482019490945293810154918401919091526003015460608301528203610dfd5750600092915050565b60055460065442118015610e1357506000600354115b15610e9257600060065442610e289190611328565b90506000610e3b6301e13380606461133b565b670de0b6b3a764000060045460035485610e55919061133b565b610e5f919061133b565b610e69919061133b565b610e739190611352565b905060035481610e839190611352565b610e8d9084611315565b925050505b60008260600151670de0b6b3a7640000838560000151610eb2919061133b565b610ebc9190611352565b610ec69190611328565b95945050505050565b610ed7611033565b610b2060006111f7565b6000610eec82610da6565b92915050565b610efa611033565b610f02611249565b604051600181527f752d7e161ff5146f80e3820893176eb40532811e5e20400dfdde57455213706a906020016105a6565b610f3b611033565b6032811115610f7c5760405162461bcd60e51b815260206004820152600d60248201526c0a4c2e8ca40e8dede40d0d2ced609b1b6044820152606401610550565b610f866000611060565b60048190556040518181527f41d466ebd06fb97e7786086ac8b69b7eb7da798592036251291d34e9791cde019060200160405180910390a150565b600354600854600091479183610fd78284611315565b8411610fe4576000610ec6565b610fee8284611315565b610ec69085611328565b611000611033565b6001600160a01b03811661102a57604051631e4fbdf760e01b815260006004820152602401610550565b6108f3816111f7565b6001546001600160a01b03163314610b205760405163118cdaa760e01b8152336004820152602401610550565b600354600003611071575042600655565b6000600654426110819190611328565b905080156110fe57600061109a6301e13380606461133b565b670de0b6b3a7640000600454600354856110b4919061133b565b6110be919061133b565b6110c8919061133b565b6110d29190611352565b9050600354816110e29190611352565b600560008282546110f39190611315565b909155505042600655505b6001600160a01b0382161561114e576001600160a01b03821660009081526002602052604090206005548154670de0b6b3a76400009161113d9161133b565b6111479190611352565b6003909101555b5050565b60026000540361117557604051633ee5aeb560e01b815260040160405180910390fd5b6002600055565b600154600160a01b900460ff1615610b205760405163d93c066560e01b815260040160405180910390fd5b6111af61128c565b6001805460ff60a01b191690557f5db9ee0a495bf2e6ff9c91a7834c1ba4fdd244a5e8aa4e537bd38aeae4b073aa335b6040516001600160a01b0390911681526020016105a6565b600180546001600160a01b038381166001600160a01b0319831681179093556040519116919082907f8be0079c531659141344cd1fd0a4f28419497f9722a3daafe3b4186f6b6457e090600090a35050565b61125161117c565b6001805460ff60a01b1916600160a01b1790557f62e78cea01bee320cd4e420270b5ea74000d11b0c9f74754ebdbfc544b05a2586111df3390565b600154600160a01b900460ff16610b2057604051638dfc202b60e01b815260040160405180910390fd5b6000602082840312156112c857600080fd5b81356001600160a01b03811681146112df57600080fd5b9392505050565b6000602082840312156112f857600080fd5b5035919050565b634e487b7160e01b600052601160045260246000fd5b80820180821115610eec57610eec6112ff565b81810381811115610eec57610eec6112ff565b8082028115828204841417610eec57610eec6112ff565b60008261136f57634e487b7160e01b600052601260045260246000fd5b50049056fea264697066735822122094cd038e5a8e900d99d521d86524760625a1e3328acd043164709fe737c2dcfe64736f6c63430008140033",
  "linkReferences": {},
  "deployedLinkReferences": {}
}