{
  "_format": "hh-sol-artifact-1",
  "contractName": "StakingContract",
  "sourceName": "contracts/StakingContract.sol",
  "abi": [
    {
      "inputs": [],
      "stateMutability": "nonpayable",
      "type": "constructor"
    },
    {
      "inputs": [],
      "name": "EnforcedPause",
      "type": "error"
    },
    {
      "inputs": [],
      "name": "ExpectedPause",
      "type": "error"
    },
    {
      "inputs": [
        {
          "internalType": "address",
          "name": "owner",
          "type": "address"
        }
      ],
      "name": "OwnableInvalidOwner",
      "type": "error"
    },
    {
      "inputs": [
        {
          "internalType": "address",
          "name": "account",
          "type": "address"
        }
      ],
      "name": "OwnableUnauthorizedAccount",
      "type": "error"
    },
    {
      "inputs": [],
      "name": "ReentrancyGuardReentrantCall",
      "type": "error"
    },
    {
      "anonymous": false,
      "inputs": [
        {
          "indexed": false,
          "internalType": "bool",
          "name": "paused",
          "type": "bool"
        }
      ],
      "name": "ContractPaused",
      "type": "event"
    },
    {
      "anonymous": false,
      "inputs": [
        {
          "indexed": true,
          "internalType": "address",
          "name": "previousOwner",
          "type": "address"
        },
        {
          "indexed": true,
          "internalType": "address",
          "name": "newOwner",
          "type": "address"
        }
      ],
      "name": "OwnershipTransferred",
      "type": "event"
    },
    {
      "anonymous": false,
      "inputs": [
        {
          "indexed": false,
          "internalType": "address",
          "name": "account",
          "type": "address"
        }
      ],
      "name": "Paused",
      "type": "event"
    },
    {
      "anonymous": false,
      "inputs": [
        {
          "indexed": false,
          "internalType": "uint256",
          "name": "newRate",
          "type": "uint256"
        }
      ],
      "name": "RewardRateUpdated",
      "type": "event"
    },
    {
      "anonymous": false,
      "inputs": [
        {
          "indexed": true,
          "internalType": "address",
          "name": "user",
          "type": "address"
        },
        {
          "indexed": false,
          "internalType": "uint256",
          "name": "amount",
          "type": "uint256"
        }
      ],
      "name": "RewardsClaimed",
      "type": "event"
    },
    {
      "anonymous": false,
      "inputs": [
        {
          "indexed": false,
          "internalType": "uint256",
          "name": "amount",
          "type": "uint256"
        }
      ],
      "name": "RewardsDeposited",
      "type": "event"
    },
    {
      "anonymous": false,
      "inputs": [
        {
          "indexed": true,
          "internalType": "address",
          "name": "user",
          "type": "address"
        },
        {
          "indexed": false,
          "internalType": "uint256",
          "name": "amount",
          "type": "uint256"
        }
      ],
      "name": "Staked",
      "type": "event"
    },
    {
      "anonymous": false,
      "inputs": [
        {
          "indexed": false,
          "internalType": "address",
          "name": "account",
          "type": "address"
        }
      ],
      "name": "Unpaused",
      "type": "event"
    },
    {
      "anonymous": false,
      "inputs": [
        {
          "indexed": true,
          "internalType": "address",
          "name": "user",
          "type": "address"
        },
        {
          "indexed": false,
          "internalType": "uint256",
          "name": "amount",
          "type": "uint256"
        }
      ],
      "name": "Unstaked",
      "type": "event"
    },
    {
      "inputs": [],
      "name": "PRECISION",
      "outputs": [
        {
          "internalType": "uint256",
          "name": "",
          "type": "uint256"
        }
      ],
      "stateMutability": "view",
      "type": "function"
    },
    {
      "inputs": [],
      "name": "SECONDS_PER_YEAR",
      "outputs": [
        {
          "internalType": "uint256",
          "name": "",
          "type": "uint256"
        }
      ],
      "stateMutability": "view",
      "type": "function"
    },
    {
      "inputs": [
        {
          "internalType": "address",
          "name": "user",
          "type": "address"
        }
      ],
      "name": "calculateRewards",
      "outputs": [
        {
          "internalType": "uint256",
          "name": "",
          "type": "uint256"
        }
      ],
      "stateMutability": "view",
      "type": "function"
    },
    {
      "inputs": [],
      "name": "claimRewards",
      "outputs": [],
      "stateMutability": "nonpayable",
      "type": "function"
    },
    {
      "inputs": [],
      "name": "depositRewards",
      "outputs": [],
      "stateMutability": "payable",
      "type": "function"
    },
    {
      "inputs": [
        {
          "internalType": "uint256",
          "name": "amount",
          "type": "uint256"
        }
      ],
      "name": "emergencyWithdraw",
      "outputs": [],
      "stateMutability": "nonpayable",
      "type": "function"
    },
    {
      "inputs": [],
      "name": "getContractBalance",
      "outputs": [
        {
          "internalType": "uint256",
          "name": "",
          "type": "uint256"
        }
      ],
      "stateMutability": "view",
      "type": "function"
    },
    {
      "inputs": [
        {
          "internalType": "address",
          "name": "user",
          "type": "address"
        }
      ],
      "name": "getRewards",
      "outputs": [
        {
          "internalType": "uint256",
          "name": "",
          "type": "uint256"
        }
      ],
      "stateMutability": "view",
      "type": "function"
    },
    {
      "inputs": [
        {
          "internalType": "address",
          "name": "user",
          "type": "address"
        }
      ],
      "name": "getStakedAmount",
      "outputs": [
        {
          "internalType": "uint256",
          "name": "",
          "type": "uint256"
        }
      ],
      "stateMutability": "view",
      "type": "function"
    },
    {
      "inputs": [],
      "name": "lastUpdateTime",
      "outputs": [
        {
          "internalType": "uint256",
          "name": "",
          "type": "uint256"
        }
      ],
      "stateMutability": "view",
      "type": "function"
    },
    {
      "inputs": [],
      "name": "owner",
      "outputs": [
        {
          "internalType": "address",
          "name": "",
          "type": "address"
        }
      ],
      "stateMutability": "view",
      "type": "function"
    },
    {
      "inputs": [],
      "name": "pause",
      "outputs": [],
      "stateMutability": "nonpayable",
      "type": "function"
    },
    {
      "inputs": [],
      "name": "paused",
      "outputs": [
        {
          "internalType": "bool",
          "name": "",
          "type": "bool"
        }
      ],
      "stateMutability": "view",
      "type": "function"
    },
    {
      "inputs": [],
      "name": "renounceOwnership",
      "outputs": [],
      "stateMutability": "nonpayable",
      "type": "function"
    },
    {
      "inputs": [],
      "name": "rewardPerTokenStored",
      "outputs": [
        {
          "internalType": "uint256",
          "name": "",
          "type": "uint256"
        }
      ],
      "stateMutability": "view",
      "type": "function"
    },
    {
      "inputs": [],
      "name": "rewardRate",
      "outputs": [
        {
          "internalType": "uint256",
          "name": "",
          "type": "uint256"
        }
      ],
      "stateMutability": "view",
      "type": "function"
    },
    {
      "inputs": [
        {
          "internalType": "uint256",
          "name": "newRate",
          "type": "uint256"
        }
      ],
      "name": "setRewardRate",
      "outputs": [],
      "stateMutability": "nonpayable",
      "type": "function"
    },
    {
      "inputs": [],
      "name": "stake",
      "outputs": [],
      "stateMutability": "payable",
      "type": "function"
    },
    {
      "inputs": [
        {
          "internalType": "address",
          "name": "",
          "type": "address"
        }
      ],
      "name": "stakes",
      "outputs": [
        {
          "internalType": "uint256",
          "name": "amount",
          "type": "uint256"
        },
        {
          "internalType": "uint256",
          "name": "timestamp",
          "type": "uint256"
        },
        {
          "internalType": "uint256",
          "name": "lastRewardTime",
          "type": "uint256"
        },
        {
          "internalType": "uint256",
          "name": "rewardDebt",
          "type": "uint256"
        }
      ],
      "stateMutability": "view",
      "type": "function"
    },
    {
      "inputs": [],
      "name": "totalStaked",
      "outputs": [
        {
          "internalType": "uint256",
          "name": "",
          "type": "uint256"
        }
      ],
      "stateMutability": "view",
      "type": "function"
    },
    {
      "inputs": [
        {
          "internalType": "address",
          "name": "newOwner",
          "type": "address"
        }
      ],
      "name": "transferOwnership",
      "outputs": [],
      "stateMutability": "nonpayable",
      "type": "function"
    },
    {
      "inputs": [],
      "name": "unpause",
      "outputs": [],
      "stateMutability": "nonpayable",
      "type": "function"
    },
    {
      "inputs": [
        {
          "internalType": "uint256",
          "name": "amount",
          "type": "uint256"
        }
      ],
      "name": "unstake",
      "outputs": [],
      "stateMutability": "nonpayable",
      "type": "function"
    },
    {
      "stateMutability": "payable",
      "type": "receive"
    }
  ],
  "bytecode": "0x6080604052600c60045534801561001557600080fd5b506001600055338061004157604051631e4fbdf760e01b81526000600482015260240160405180910390fd5b61004a81610054565b50426006556100a6565b600180546001600160a01b038381166001600160a01b0319831681179093556040519116919082907f8be0079c531659141344cd1fd0a4f28419497f9722a3daafe3b4186f6b6457e090600090a35050565b61127c806100b56000396000f3fe6080604052600436106101445760003560e01c8063715018a6116100b65780639e447fc61161006f5780639e447fc614610374578063aaf5eb6814610394578063c8f33c91146103b0578063df136d65146103c6578063e6a69ab8146103dc578063f2fde38b146103f457600080fd5b8063715018a6146102d657806379ee54f7146102eb5780637b0a47ee1461030b578063817b1cd2146103215780638456cb59146103375780638da5cb5b1461034c57600080fd5b80633f4ba83a116101085780633f4ba83a146102005780634da6a556146102155780635312ea8e146102595780635c975abb1461027957806364ab8675146102a35780636f9fb98a146102c357600080fd5b8063152111f71461015057806316934fc41461015a5780632e17de78146101c3578063372500ab146101e35780633a4b66f1146101f857600080fd5b3661014b57005b600080fd5b610158610414565b005b34801561016657600080fd5b5061019e610175366004611188565b600260208190526000918252604090912080546001820154928201546003909201549092919084565b6040805194855260208501939093529183015260608201526080015b60405180910390f35b3480156101cf57600080fd5b506101586101de3660046111b8565b6104bf565b3480156101ef57600080fd5b50610158610833565b610158610a11565b34801561020c57600080fd5b50610158610b45565b34801561022157600080fd5b5061024b610230366004611188565b6001600160a01b031660009081526002602052604090205490565b6040519081526020016101ba565b34801561026557600080fd5b506101586102743660046111b8565b610b86565b34801561028557600080fd5b50600154600160a01b900460ff1660405190151581526020016101ba565b3480156102af57600080fd5b5061024b6102be366004611188565b610ca1565b3480156102cf57600080fd5b504761024b565b3480156102e257600080fd5b50610158610dc9565b3480156102f757600080fd5b5061024b610306366004611188565b610ddb565b34801561031757600080fd5b5061024b60045481565b34801561032d57600080fd5b5061024b60035481565b34801561034357600080fd5b50610158610dec565b34801561035857600080fd5b506001546040516001600160a01b0390911681526020016101ba565b34801561038057600080fd5b5061015861038f3660046111b8565b610e2d565b3480156103a057600080fd5b5061024b670de0b6b3a764000081565b3480156103bc57600080fd5b5061024b60065481565b3480156103d257600080fd5b5061024b60055481565b3480156103e857600080fd5b5061024b6301e1338081565b34801561040057600080fd5b5061015861040f366004611188565b610ecb565b61041c610f06565b6000341161047f5760405162461bcd60e51b815260206004820152602560248201527f4465706f73697420616d6f756e74206d75737420626520677265617465722074604482015264068616e20360dc1b60648201526084015b60405180910390fd5b6104896000610f33565b6040513481527f4e9221f2cca6ca0397acc6004ea0b716798254f5abcf53924fab34f0373e5d4e906020015b60405180910390a1565b6104c7611024565b6104cf61104e565b336000908152600260205260409020805482111561052f5760405162461bcd60e51b815260206004820152601a60248201527f496e73756666696369656e74207374616b656420616d6f756e740000000000006044820152606401610476565b6000821161058d5760405162461bcd60e51b815260206004820152602560248201527f556e7374616b6520616d6f756e74206d75737420626520677265617465722074604482015264068616e20360dc1b6064820152608401610476565b61059633610f33565b60006105a133610ca1565b9050828260000160008282546105b791906111e7565b90915550504260028301556005548254670de0b6b3a7640000916105da916111fa565b6105e49190611211565b6003830155815460000361061857336000908152600260208190526040822082815560018101839055908101829055600301555b826003600082825461062a91906111e7565b909155505080156107565761063f8382611233565b47101561068e5760405162461bcd60e51b815260206004820152601d60248201527f496e73756666696369656e7420636f6e74726163742062616c616e63650000006044820152606401610476565b604051600090339083908381818185875af1925050503d80600081146106d0576040519150601f19603f3d011682016040523d82523d6000602084013e6106d5565b606091505b505090508061071f5760405162461bcd60e51b81526020600482015260166024820152754661696c656420746f2073656e64207265776172647360501b6044820152606401610476565b60405182815233907ffc30cddea38e2bf4d6ea7d3f9ed3b6ad7f176419f4963bd81318067a4aee73fe9060200160405180910390a2505b604051600090339085908381818185875af1925050503d8060008114610798576040519150601f19603f3d011682016040523d82523d6000602084013e61079d565b606091505b50509050806107ee5760405162461bcd60e51b815260206004820152601760248201527f556e7374616b65207472616e73666572206661696c65640000000000000000006044820152606401610476565b60405184815233907f0f5bb82176feb1b5e747e28471aa92156a04d9f3ab9f45f28e2d704232b93f759060200160405180910390a25050506108306001600055565b50565b61083b611024565b61084361104e565b61084c33610f33565b600061085733610ca1565b9050600081116108a05760405162461bcd60e51b81526020600482015260146024820152734e6f207265776172647320617661696c61626c6560601b6044820152606401610476565b804710156108f05760405162461bcd60e51b815260206004820152601d60248201527f496e73756666696369656e7420636f6e74726163742062616c616e63650000006044820152606401610476565b33600090815260026020819052604090912042918101919091556005549054670de0b6b3a764000091610922916111fa565b61092c9190611211565b3360008181526002602052604080822060030193909355915183908381818185875af1925050503d806000811461097f576040519150601f19603f3d011682016040523d82523d6000602084013e610984565b606091505b50509050806109ce5760405162461bcd60e51b81526020600482015260166024820152754661696c656420746f2073656e64207265776172647360501b6044820152606401610476565b60405182815233907ffc30cddea38e2bf4d6ea7d3f9ed3b6ad7f176419f4963bd81318067a4aee73fe9060200160405180910390a25050610a0f6001600055565b565b610a19611024565b610a2161104e565b60003411610a7d5760405162461bcd60e51b815260206004820152602360248201527f5374616b6520616d6f756e74206d75737420626520677265617465722074686160448201526206e20360ec1b6064820152608401610476565b610a8633610f33565b3360009081526002602052604081208054909103610aa5574260018201555b34816000016000828254610ab99190611233565b90915550504260028201556005548154670de0b6b3a764000091610adc916111fa565b610ae69190611211565b81600301819055503460036000828254610b009190611233565b909155505060405134815233907f9e71bc8eea02a63969f509818f2dafb9254532904319f9dbda79b67bd34a5f3d9060200160405180910390a250610a0f6001600055565b610b4d610f06565b610b55611079565b604051600081527f752d7e161ff5146f80e3820893176eb40532811e5e20400dfdde57455213706a906020016104b5565b610b8e610f06565b600354610b9b90476111e7565b811115610bf45760405162461bcd60e51b815260206004820152602160248201527f43616e6e6f742077697468647261772075736572207374616b65642066756e646044820152607360f81b6064820152608401610476565b6000610c086001546001600160a01b031690565b6001600160a01b03168260405160006040518083038185875af1925050503d8060008114610c52576040519150601f19603f3d011682016040523d82523d6000602084013e610c57565b606091505b5050905080610c9d5760405162461bcd60e51b81526020600482015260126024820152714661696c656420746f20776974686472617760701b6044820152606401610476565b5050565b6001600160a01b03811660009081526002602081815260408084208151608081018352815480825260018301549482019490945293810154918401919091526003015460608301528203610cf85750600092915050565b60055460065442118015610d0d575060035415155b15610d8c57600060065442610d2291906111e7565b90506000610d356301e1338060646111fa565b670de0b6b3a764000060045460035485610d4f91906111fa565b610d5991906111fa565b610d6391906111fa565b610d6d9190611211565b905060035481610d7d9190611211565b610d879084611233565b925050505b60008260600151670de0b6b3a7640000838560000151610dac91906111fa565b610db69190611211565b610dc091906111e7565b95945050505050565b610dd1610f06565b610a0f60006110c9565b6000610de682610ca1565b92915050565b610df4610f06565b610dfc61111b565b604051600181527f752d7e161ff5146f80e3820893176eb40532811e5e20400dfdde57455213706a906020016104b5565b610e35610f06565b6032811115610e865760405162461bcd60e51b815260206004820152601d60248201527f52657761726420726174652063616e6e6f7420657863656564203530250000006044820152606401610476565b610e906000610f33565b60048190556040518181527f41d466ebd06fb97e7786086ac8b69b7eb7da798592036251291d34e9791cde019060200160405180910390a150565b610ed3610f06565b6001600160a01b038116610efd57604051631e4fbdf760e01b815260006004820152602401610476565b610830816110c9565b6001546001600160a01b03163314610a0f5760405163118cdaa760e01b8152336004820152602401610476565b600354600003610f44575042600655565b600060065442610f5491906111e7565b905060008111610f62575050565b6000610f736301e1338060646111fa565b670de0b6b3a764000060045460035485610f8d91906111fa565b610f9791906111fa565b610fa191906111fa565b610fab9190611211565b905060035481610fbb9190611211565b600554610fc89190611233565b600555426006556001600160a01b0383161561101f576001600160a01b03831660009081526002602052604090206005548154670de0b6b3a76400009161100e916111fa565b6110189190611211565b6003909101555b505050565b60026000540361104757604051633ee5aeb560e01b815260040160405180910390fd5b6002600055565b600154600160a01b900460ff1615610a0f5760405163d93c066560e01b815260040160405180910390fd5b61108161115e565b6001805460ff60a01b191690557f5db9ee0a495bf2e6ff9c91a7834c1ba4fdd244a5e8aa4e537bd38aeae4b073aa335b6040516001600160a01b0390911681526020016104b5565b600180546001600160a01b038381166001600160a01b0319831681179093556040519116919082907f8be0079c531659141344cd1fd0a4f28419497f9722a3daafe3b4186f6b6457e090600090a35050565b61112361104e565b6001805460ff60a01b1916600160a01b1790557f62e78cea01bee320cd4e420270b5ea74000d11b0c9f74754ebdbfc544b05a2586110b13390565b600154600160a01b900460ff16610a0f57604051638dfc202b60e01b815260040160405180910390fd5b60006020828403121561119a57600080fd5b81356001600160a01b03811681146111b157600080fd5b9392505050565b6000602082840312156111ca57600080fd5b5035919050565b634e487b7160e01b600052601160045260246000fd5b81810381811115610de657610de66111d1565b8082028115828204841417610de657610de66111d1565b60008261122e57634e487b7160e01b600052601260045260246000fd5b500490565b80820180821115610de657610de66111d156fea2646970667358221220f691b49602d30d2c0aa3f17db559ddd047864064ab8e8e3db242515af53f1ce364736f6c63430008140033",
  "linkReferences": {},
  "deployedLinkReferences": {}
}