{
  "_format": "hh-sol-artifact-1",
  "contractName": "StakingContract",
  "sourceName": "contracts/StakingContract.sol",
  "abi": [
    {
      "inputs": [],
      "stateMutability": "nonpayable",
      "type": "constructor"
    },
    {
      "inputs": [],
      "name": "EnforcedPause",
      "type": "error"
    },
    {
      "inputs": [],
      "name": "ExpectedPause",
      "type": "error"
    },
    {
      "inputs": [
        {
          "internalType": "address",
          "name": "owner",
          "type": "address"
        }
      ],
      "name": "OwnableInvalidOwner",
      "type": "error"
    },
    {
      "inputs": [
        {
          "internalType": "address",
          "name": "account",
          "type": "address"
        }
      ],
      "name": "OwnableUnauthorizedAccount",
      "type": "error"
    },
    {
      "inputs": [],
      "name": "ReentrancyGuardReentrantCall",
      "type": "error"
    },
    {
      "anonymous": false,
      "inputs": [
        {
          "indexed": false,
          "internalType": "bool",
          "name": "paused",
          "type": "bool"
        }
      ],
      "name": "ContractPaused",
      "type": "event"
    },
    {
      "anonymous": false,
      "inputs": [
        {
          "indexed": true,
          "internalType": "address",
          "name": "previousOwner",
          "type": "address"
        },
        {
          "indexed": true,
          "internalType": "address",
          "name": "newOwner",
          "type": "address"
        }
      ],
      "name": "OwnershipTransferred",
      "type": "event"
    },
    {
      "anonymous": false,
      "inputs": [
        {
          "indexed": false,
          "internalType": "address",
          "name": "account",
          "type": "address"
        }
      ],
      "name": "Paused",
      "type": "event"
    },
    {
      "anonymous": false,
      "inputs": [
        {
          "indexed": true,
          "internalType": "address",
          "name": "user",
          "type": "address"
        },
        {
          "indexed": false,
          "internalType": "uint256",
          "name": "amount",
          "type": "uint256"
        }
      ],
      "name": "RewardPaymentFailed",
      "type": "event"
    },
    {
      "anonymous": false,
      "inputs": [
        {
          "indexed": false,
          "internalType": "uint256",
          "name": "newRateBps",
          "type": "uint256"
        }
      ],
      "name": "RewardRateUpdated",
      "type": "event"
    },
    {
      "anonymous": false,
      "inputs": [
        {
          "indexed": true,
          "internalType": "address",
          "name": "user",
          "type": "address"
        },
        {
          "indexed": false,
          "internalType": "uint256",
          "name": "amount",
          "type": "uint256"
        }
      ],
      "name": "RewardWithdrawn",
      "type": "event"
    },
    {
      "anonymous": false,
      "inputs": [
        {
          "indexed": true,
          "internalType": "address",
          "name": "user",
          "type": "address"
        },
        {
          "indexed": false,
          "internalType": "uint256",
          "name": "amount",
          "type": "uint256"
        }
      ],
      "name": "RewardsClaimed",
      "type": "event"
    },
    {
      "anonymous": false,
      "inputs": [
        {
          "indexed": false,
          "internalType": "uint256",
          "name": "amount",
          "type": "uint256"
        }
      ],
      "name": "RewardsDeposited",
      "type": "event"
    },
    {
      "anonymous": false,
      "inputs": [
        {
          "indexed": true,
          "internalType": "address",
          "name": "user",
          "type": "address"
        },
        {
          "indexed": false,
          "internalType": "uint256",
          "name": "amount",
          "type": "uint256"
        }
      ],
      "name": "Staked",
      "type": "event"
    },
    {
      "anonymous": false,
      "inputs": [
        {
          "indexed": false,
          "internalType": "address",
          "name": "account",
          "type": "address"
        }
      ],
      "name": "Unpaused",
      "type": "event"
    },
    {
      "anonymous": false,
      "inputs": [
        {
          "indexed": true,
          "internalType": "address",
          "name": "user",
          "type": "address"
        },
        {
          "indexed": false,
          "internalType": "uint256",
          "name": "amount",
          "type": "uint256"
        }
      ],
      "name": "Unstaked",
      "type": "event"
    },
    {
      "inputs": [],
      "name": "PRECISION",
      "outputs": [
        {
          "internalType": "uint256",
          "name": "",
          "type": "uint256"
        }
      ],
      "stateMutability": "view",
      "type": "function"
    },
    {
      "inputs": [],
      "name": "SECONDS_PER_YEAR",
      "outputs": [
        {
          "internalType": "uint256",
          "name": "",
          "type": "uint256"
        }
      ],
      "stateMutability": "view",
      "type": "function"
    },
    {
      "inputs": [],
      "name": "availableRewardFunds",
      "outputs": [
        {
          "internalType": "uint256",
          "name": "",
          "type": "uint256"
        }
      ],
      "stateMutability": "view",
      "type": "function"
    },
    {
      "inputs": [
        {
          "internalType": "address",
          "name": "user",
          "type": "address"
        }
      ],
      "name": "calculateRewards",
      "outputs": [
        {
          "internalType": "uint256",
          "name": "",
          "type": "uint256"
        }
      ],
      "stateMutability": "view",
      "type": "function"
    },
    {
      "inputs": [],
      "name": "claimRewards",
      "outputs": [],
      "stateMutability": "nonpayable",
      "type": "function"
    },
    {
      "inputs": [],
      "name": "depositRewards",
      "outputs": [],
      "stateMutability": "payable",
      "type": "function"
    },
    {
      "inputs": [
        {
          "internalType": "uint256",
          "name": "amount",
          "type": "uint256"
        }
      ],
      "name": "emergencyWithdraw",
      "outputs": [],
      "stateMutability": "nonpayable",
      "type": "function"
    },
    {
      "inputs": [],
      "name": "getContractBalance",
      "outputs": [
        {
          "internalType": "uint256",
          "name": "",
          "type": "uint256"
        }
      ],
      "stateMutability": "view",
      "type": "function"
    },
    {
      "inputs": [],
      "name": "getRewardStats",
      "outputs": [
        {
          "internalType": "uint256",
          "name": "deposited",
          "type": "uint256"
        },
        {
          "internalType": "uint256",
          "name": "claimed",
          "type": "uint256"
        },
        {
          "internalType": "uint256",
          "name": "available",
          "type": "uint256"
        }
      ],
      "stateMutability": "view",
      "type": "function"
    },
    {
      "inputs": [
        {
          "internalType": "address",
          "name": "user",
          "type": "address"
        }
      ],
      "name": "getRewards",
      "outputs": [
        {
          "internalType": "uint256",
          "name": "",
          "type": "uint256"
        }
      ],
      "stateMutability": "view",
      "type": "function"
    },
    {
      "inputs": [
        {
          "internalType": "address",
          "name": "user",
          "type": "address"
        }
      ],
      "name": "getStakedAmount",
      "outputs": [
        {
          "internalType": "uint256",
          "name": "",
          "type": "uint256"
        }
      ],
      "stateMutability": "view",
      "type": "function"
    },
    {
      "inputs": [],
      "name": "getTotalStaked",
      "outputs": [
        {
          "internalType": "uint256",
          "name": "",
          "type": "uint256"
        }
      ],
      "stateMutability": "view",
      "type": "function"
    },
    {
      "inputs": [
        {
          "internalType": "address",
          "name": "user",
          "type": "address"
        }
      ],
      "name": "getUserTotalClaimedRewards",
      "outputs": [
        {
          "internalType": "uint256",
          "name": "",
          "type": "uint256"
        }
      ],
      "stateMutability": "view",
      "type": "function"
    },
    {
      "inputs": [],
      "name": "lastUpdateTime",
      "outputs": [
        {
          "internalType": "uint256",
          "name": "",
          "type": "uint256"
        }
      ],
      "stateMutability": "view",
      "type": "function"
    },
    {
      "inputs": [],
      "name": "owner",
      "outputs": [
        {
          "internalType": "address",
          "name": "",
          "type": "address"
        }
      ],
      "stateMutability": "view",
      "type": "function"
    },
    {
      "inputs": [],
      "name": "pause",
      "outputs": [],
      "stateMutability": "nonpayable",
      "type": "function"
    },
    {
      "inputs": [],
      "name": "paused",
      "outputs": [
        {
          "internalType": "bool",
          "name": "",
          "type": "bool"
        }
      ],
      "stateMutability": "view",
      "type": "function"
    },
    {
      "inputs": [
        {
          "internalType": "address",
          "name": "",
          "type": "address"
        }
      ],
      "name": "pendingRewardPayouts",
      "outputs": [
        {
          "internalType": "uint256",
          "name": "",
          "type": "uint256"
        }
      ],
      "stateMutability": "view",
      "type": "function"
    },
    {
      "inputs": [],
      "name": "renounceOwnership",
      "outputs": [],
      "stateMutability": "nonpayable",
      "type": "function"
    },
    {
      "inputs": [],
      "name": "rewardPerTokenStored",
      "outputs": [
        {
          "internalType": "uint256",
          "name": "",
          "type": "uint256"
        }
      ],
      "stateMutability": "view",
      "type": "function"
    },
    {
      "inputs": [],
      "name": "rewardRateBps",
      "outputs": [
        {
          "internalType": "uint256",
          "name": "",
          "type": "uint256"
        }
      ],
      "stateMutability": "view",
      "type": "function"
    },
    {
      "inputs": [
        {
          "internalType": "uint256",
          "name": "newRateBps",
          "type": "uint256"
        }
      ],
      "name": "setRewardRate",
      "outputs": [],
      "stateMutability": "nonpayable",
      "type": "function"
    },
    {
      "inputs": [],
      "name": "stake",
      "outputs": [],
      "stateMutability": "payable",
      "type": "function"
    },
    {
      "inputs": [
        {
          "internalType": "address",
          "name": "",
          "type": "address"
        }
      ],
      "name": "stakes",
      "outputs": [
        {
          "internalType": "uint256",
          "name": "amount",
          "type": "uint256"
        },
        {
          "internalType": "uint256",
          "name": "timestamp",
          "type": "uint256"
        },
        {
          "internalType": "uint256",
          "name": "lastRewardTime",
          "type": "uint256"
        },
        {
          "internalType": "uint256",
          "name": "rewardDebt",
          "type": "uint256"
        }
      ],
      "stateMutability": "view",
      "type": "function"
    },
    {
      "inputs": [
        {
          "internalType": "address",
          "name": "",
          "type": "address"
        }
      ],
      "name": "totalClaimedRewards",
      "outputs": [
        {
          "internalType": "uint256",
          "name": "",
          "type": "uint256"
        }
      ],
      "stateMutability": "view",
      "type": "function"
    },
    {
      "inputs": [],
      "name": "totalRewardsClaimed",
      "outputs": [
        {
          "internalType": "uint256",
          "name": "",
          "type": "uint256"
        }
      ],
      "stateMutability": "view",
      "type": "function"
    },
    {
      "inputs": [],
      "name": "totalRewardsDeposited",
      "outputs": [
        {
          "internalType": "uint256",
          "name": "",
          "type": "uint256"
        }
      ],
      "stateMutability": "view",
      "type": "function"
    },
    {
      "inputs": [],
      "name": "totalStaked",
      "outputs": [
        {
          "internalType": "uint256",
          "name": "",
          "type": "uint256"
        }
      ],
      "stateMutability": "view",
      "type": "function"
    },
    {
      "inputs": [
        {
          "internalType": "address",
          "name": "newOwner",
          "type": "address"
        }
      ],
      "name": "transferOwnership",
      "outputs": [],
      "stateMutability": "nonpayable",
      "type": "function"
    },
    {
      "inputs": [],
      "name": "unpause",
      "outputs": [],
      "stateMutability": "nonpayable",
      "type": "function"
    },
    {
      "inputs": [
        {
          "internalType": "uint256",
          "name": "amount",
          "type": "uint256"
        }
      ],
      "name": "unstake",
      "outputs": [],
      "stateMutability": "nonpayable",
      "type": "function"
    },
    {
      "inputs": [],
      "name": "withdrawPendingReward",
      "outputs": [],
      "stateMutability": "nonpayable",
      "type": "function"
    },
    {
      "stateMutability": "payable",
      "type": "receive"
    }
  ],
  "bytecode": "0x60806040526104b060055534801561001657600080fd5b506001600055338061004257604051631e4fbdf760e01b81526000600482015260240160405180910390fd5b61004b81610055565b50426007556100a7565b600180546001600160a01b038381166001600160a01b0319831681179093556040519116919082907f8be0079c531659141344cd1fd0a4f28419497f9722a3daafe3b4186f6b6457e090600090a35050565b61155c806100b66000396000f3fe6080604052600436106101e75760003560e01c80636f9fb98a11610102578063a110b93f11610095578063d037709411610064578063d03770941461057b578063df136d6514610590578063e6a69ab8146105a6578063f2fde38b146105be57600080fd5b8063a110b93f14610506578063a34b0f7614610533578063aaf5eb6814610549578063c8f33c911461056557600080fd5b8063817b1cd2116100d1578063817b1cd2146104935780638456cb59146104a95780638da5cb5b146104be5780639e447fc6146104e657600080fd5b80636f9fb98a14610435578063715018a61461044857806373face861461045d57806379ee54f71461047357600080fd5b8063372500ab1161017a5780634da6a556116101495780634da6a556146103955780635312ea8e146103cb5780635c975abb146103eb57806364ab86751461041557600080fd5b8063372500ab1461034e5780633a4b66f1146103635780633f4ba83a1461036b57806342910c5a1461038057600080fd5b80632673b457116101b65780632673b4571461029b578063283edc3c146102d15780632e17de78146102fe5780633217e57a1461031e57600080fd5b80630917e776146101f3578063152111f71461021757806316934fc4146102215780631f4c74fd1461028557600080fd5b366101ee57005b600080fd5b3480156101ff57600080fd5b506004545b6040519081526020015b60405180910390f35b61021f6105de565b005b34801561022d57600080fd5b5061026561023c366004611468565b600260208190526000918252604090912080546001820154928201546003909201549092919084565b60408051948552602085019390935291830152606082015260800161020e565b34801561029157600080fd5b5061020460085481565b3480156102a757600080fd5b506102046102b6366004611468565b6001600160a01b031660009081526003602052604090205490565b3480156102dd57600080fd5b506102046102ec366004611468565b600a6020526000908152604090205481565b34801561030a57600080fd5b5061021f610319366004611498565b610681565b34801561032a57600080fd5b50610333610967565b6040805193845260208401929092529082015260600161020e565b34801561035a57600080fd5b5061021f61097e565b61021f610bb7565b34801561037757600080fd5b5061021f610ceb565b34801561038c57600080fd5b5061021f610d2c565b3480156103a157600080fd5b506102046103b0366004611468565b6001600160a01b031660009081526002602052604090205490565b3480156103d757600080fd5b5061021f6103e6366004611498565b610e3f565b3480156103f757600080fd5b50600154600160a01b900460ff16604051901515815260200161020e565b34801561042157600080fd5b50610204610430366004611468565b610f65565b34801561044157600080fd5b5047610204565b34801561045457600080fd5b5061021f61108f565b34801561046957600080fd5b5061020460055481565b34801561047f57600080fd5b5061020461048e366004611468565b6110a1565b34801561049f57600080fd5b5061020460045481565b3480156104b557600080fd5b5061021f6110b2565b3480156104ca57600080fd5b506001546040516001600160a01b03909116815260200161020e565b3480156104f257600080fd5b5061021f610501366004611498565b6110f3565b34801561051257600080fd5b50610204610521366004611468565b60036020526000908152604090205481565b34801561053f57600080fd5b5061020460095481565b34801561055557600080fd5b50610204670de0b6b3a764000081565b34801561057157600080fd5b5061020460075481565b34801561058757600080fd5b50610204611192565b34801561059c57600080fd5b5061020460065481565b3480156105b257600080fd5b506102046301e1338081565b3480156105ca57600080fd5b5061021f6105d9366004611468565b6111a9565b6105e66111e4565b6000341161062a5760405162461bcd60e51b815260206004820152600c60248201526b16995c9bc819195c1bdcda5d60a21b60448201526064015b60405180910390fd5b6106346000611211565b346008600082825461064691906114c7565b90915550506040513481527f4e9221f2cca6ca0397acc6004ea0b716798254f5abcf53924fab34f0373e5d4e906020015b60405180910390a1565b610689611304565b61069161132e565b600081116106ef5760405162461bcd60e51b815260206004820152602560248201527f556e7374616b6520616d6f756e74206d75737420626520677265617465722074604482015264068616e20360dc1b6064820152608401610621565b336000908152600260205260409020805482111561074f5760405162461bcd60e51b815260206004820152601a60248201527f496e73756666696369656e74207374616b656420616d6f756e740000000000006044820152606401610621565b61075833611211565b600061076333610f65565b90508282600001600082825461077991906114da565b909155505042600283015581546000036107b357336000908152600260208190526040822082815560018101839055908101829055600301555b82600460008282546107c591906114da565b909155506107d4905033611211565b6000811561083d5760006107e6611192565b90508083116107f557826107f7565b805b9150811561083b57816009600082825461081191906114c7565b909155505033600090815260036020526040812080548492906108359084906114c7565b90915550505b505b600061084982866114c7565b604051909150600090339083908381818185875af1925050503d806000811461088e576040519150601f19603f3d011682016040523d82523d6000602084013e610893565b606091505b50509050806108e45760405162461bcd60e51b815260206004820152601860248201527f556e7374616b653a207472616e73666572206661696c656400000000000000006044820152606401610621565b82156109205760405183815233907ffc30cddea38e2bf4d6ea7d3f9ed3b6ad7f176419f4963bd81318067a4aee73fe9060200160405180910390a25b60405186815233907f0f5bb82176feb1b5e747e28471aa92156a04d9f3ab9f45f28e2d704232b93f759060200160405180910390a250505050506109646001600055565b50565b6008546009546000610977611192565b9050909192565b610986611304565b61098e61132e565b61099733611211565b60006109a233610f65565b9050600081116109ea5760405162461bcd60e51b81526020600482015260136024820152724e6f207265776172647320746f20636c61696d60681b6044820152606401610621565b60006109f4611192565b905060008111610a465760405162461bcd60e51b815260206004820152601960248201527f4e6f207265776172642066756e647320617661696c61626c65000000000000006044820152606401610621565b6000818311610a555782610a57565b815b90508060096000828254610a6b91906114c7565b90915550503360009081526003602052604081208054839290610a8f9084906114c7565b909155505033600090815260026020819052604090912042918101919091556006549054670de0b6b3a764000091610ac6916114ed565b610ad09190611504565b3360008181526002602052604080822060030193909355915183908381818185875af1925050503d8060008114610b23576040519150601f19603f3d011682016040523d82523d6000602084013e610b28565b606091505b5050905080610b725760405162461bcd60e51b815260206004820152601660248201527514995dd85c99081d1c985b9cd9995c8819985a5b195960521b6044820152606401610621565b60405182815233907ffc30cddea38e2bf4d6ea7d3f9ed3b6ad7f176419f4963bd81318067a4aee73fe9060200160405180910390a250505050610bb56001600055565b565b610bbf611304565b610bc761132e565b60003411610c235760405162461bcd60e51b815260206004820152602360248201527f5374616b6520616d6f756e74206d75737420626520677265617465722074686160448201526206e20360ec1b6064820152608401610621565b610c2c33611211565b3360009081526002602052604081208054909103610c4b574260018201555b34816000016000828254610c5f91906114c7565b90915550504260028201556006548154670de0b6b3a764000091610c82916114ed565b610c8c9190611504565b81600301819055503460046000828254610ca691906114c7565b909155505060405134815233907f9e71bc8eea02a63969f509818f2dafb9254532904319f9dbda79b67bd34a5f3d9060200160405180910390a250610bb56001600055565b610cf36111e4565b610cfb611359565b604051600081527f752d7e161ff5146f80e3820893176eb40532811e5e20400dfdde57455213706a90602001610677565b610d34611304565b336000908152600a602052604090205480610d865760405162461bcd60e51b81526020600482015260126024820152714e6f2070656e64696e67207265776172647360701b6044820152606401610621565b336000818152600a60205260408082208290555190919083908381818185875af1925050503d8060008114610dd7576040519150601f19603f3d011682016040523d82523d6000602084013e610ddc565b606091505b505090508015610e205760405182815233907f1d3eee4ca001cff39eec6ec7615aacf2f2bd61791273830728ba00ccbd6e13379060200160405180910390a2610e33565b336000908152600a602052604090208290555b5050610bb56001600055565b610e476111e4565b6000610e51611192565b905080821115610ea35760405162461bcd60e51b815260206004820152601760248201527f4578636565647320617661696c61626c652066756e64730000000000000000006044820152606401610621565b6000610eb76001546001600160a01b031690565b6001600160a01b03168360405160006040518083038185875af1925050503d8060008114610f01576040519150601f19603f3d011682016040523d82523d6000602084013e610f06565b606091505b5050905080610f495760405162461bcd60e51b815260206004820152600f60248201526e15da5d1a191c985dc819985a5b1959608a1b6044820152606401610621565b8260086000828254610f5b91906114da565b9091555050505050565b6001600160a01b03811660009081526002602081815260408084208151608081018352815480825260018301549482019490945293810154918401919091526003015460608301528203610fbc5750600092915050565b60065460075442118015610fd257506000600454115b1561105257600060075442610fe791906114da565b90506000610ffb6301e133806127106114ed565b670de0b6b3a76400006005546004548561101591906114ed565b61101f91906114ed565b61102991906114ed565b6110339190611504565b9050600454816110439190611504565b61104d90846114c7565b925050505b60008260600151670de0b6b3a764000083856000015161107291906114ed565b61107c9190611504565b61108691906114da565b95945050505050565b6110976111e4565b610bb560006113a9565b60006110ac82610f65565b92915050565b6110ba6111e4565b6110c26113fb565b604051600181527f752d7e161ff5146f80e3820893176eb40532811e5e20400dfdde57455213706a90602001610677565b6110fb6111e4565b61138881111561114d5760405162461bcd60e51b815260206004820152601760248201527f5261746520746f6f206869676820286d617820353025290000000000000000006044820152606401610621565b6111576000611211565b60058190556040518181527f41d466ebd06fb97e7786086ac8b69b7eb7da798592036251291d34e9791cde019060200160405180910390a150565b60006009546008546111a491906114da565b905090565b6111b16111e4565b6001600160a01b0381166111db57604051631e4fbdf760e01b815260006004820152602401610621565b610964816113a9565b6001546001600160a01b03163314610bb55760405163118cdaa760e01b8152336004820152602401610621565b600454600003611222575042600755565b60006007544261123291906114da565b905080156112b057600061124c6301e133806127106114ed565b670de0b6b3a76400006005546004548561126691906114ed565b61127091906114ed565b61127a91906114ed565b6112849190611504565b9050600454816112949190611504565b600660008282546112a591906114c7565b909155505042600755505b6001600160a01b03821615611300576001600160a01b03821660009081526002602052604090206006548154670de0b6b3a7640000916112ef916114ed565b6112f99190611504565b6003909101555b5050565b60026000540361132757604051633ee5aeb560e01b815260040160405180910390fd5b6002600055565b600154600160a01b900460ff1615610bb55760405163d93c066560e01b815260040160405180910390fd5b61136161143e565b6001805460ff60a01b191690557f5db9ee0a495bf2e6ff9c91a7834c1ba4fdd244a5e8aa4e537bd38aeae4b073aa335b6040516001600160a01b039091168152602001610677565b600180546001600160a01b038381166001600160a01b0319831681179093556040519116919082907f8be0079c531659141344cd1fd0a4f28419497f9722a3daafe3b4186f6b6457e090600090a35050565b61140361132e565b6001805460ff60a01b1916600160a01b1790557f62e78cea01bee320cd4e420270b5ea74000d11b0c9f74754ebdbfc544b05a2586113913390565b600154600160a01b900460ff16610bb557604051638dfc202b60e01b815260040160405180910390fd5b60006020828403121561147a57600080fd5b81356001600160a01b038116811461149157600080fd5b9392505050565b6000602082840312156114aa57600080fd5b5035919050565b634e487b7160e01b600052601160045260246000fd5b808201808211156110ac576110ac6114b1565b818103818111156110ac576110ac6114b1565b80820281158282048414176110ac576110ac6114b1565b60008261152157634e487b7160e01b600052601260045260246000fd5b50049056fea2646970667358221220b3931d77dc0c8cf99792333e28e0a9c0bb886f22def517c97f8e51624d20b86b64736f6c63430008140033",
  "linkReferences": {},
  "deployedLinkReferences": {}
}