{
  "_format": "hh-sol-artifact-1",
  "contractName": "StakingContract",
  "sourceName": "contracts/StakingContract.sol",
  "abi": [
    {
      "inputs": [],
      "stateMutability": "nonpayable",
      "type": "constructor"
    },
    {
      "inputs": [],
      "name": "EnforcedPause",
      "type": "error"
    },
    {
      "inputs": [],
      "name": "ExpectedPause",
      "type": "error"
    },
    {
      "inputs": [
        {
          "internalType": "address",
          "name": "owner",
          "type": "address"
        }
      ],
      "name": "OwnableInvalidOwner",
      "type": "error"
    },
    {
      "inputs": [
        {
          "internalType": "address",
          "name": "account",
          "type": "address"
        }
      ],
      "name": "OwnableUnauthorizedAccount",
      "type": "error"
    },
    {
      "inputs": [],
      "name": "ReentrancyGuardReentrantCall",
      "type": "error"
    },
    {
      "anonymous": false,
      "inputs": [
        {
          "indexed": false,
          "internalType": "bool",
          "name": "paused",
          "type": "bool"
        }
      ],
      "name": "ContractPaused",
      "type": "event"
    },
    {
      "anonymous": false,
      "inputs": [
        {
          "indexed": true,
          "internalType": "address",
          "name": "previousOwner",
          "type": "address"
        },
        {
          "indexed": true,
          "internalType": "address",
          "name": "newOwner",
          "type": "address"
        }
      ],
      "name": "OwnershipTransferred",
      "type": "event"
    },
    {
      "anonymous": false,
      "inputs": [
        {
          "indexed": false,
          "internalType": "address",
          "name": "account",
          "type": "address"
        }
      ],
      "name": "Paused",
      "type": "event"
    },
    {
      "anonymous": false,
      "inputs": [
        {
          "indexed": true,
          "internalType": "address",
          "name": "user",
          "type": "address"
        },
        {
          "indexed": false,
          "internalType": "uint256",
          "name": "amount",
          "type": "uint256"
        }
      ],
      "name": "RewardPaymentFailed",
      "type": "event"
    },
    {
      "anonymous": false,
      "inputs": [
        {
          "indexed": false,
          "internalType": "uint256",
          "name": "newRateBps",
          "type": "uint256"
        }
      ],
      "name": "RewardRateUpdated",
      "type": "event"
    },
    {
      "anonymous": false,
      "inputs": [
        {
          "indexed": true,
          "internalType": "address",
          "name": "user",
          "type": "address"
        },
        {
          "indexed": false,
          "internalType": "uint256",
          "name": "amount",
          "type": "uint256"
        }
      ],
      "name": "RewardWithdrawn",
      "type": "event"
    },
    {
      "anonymous": false,
      "inputs": [
        {
          "indexed": true,
          "internalType": "address",
          "name": "user",
          "type": "address"
        },
        {
          "indexed": false,
          "internalType": "uint256",
          "name": "amount",
          "type": "uint256"
        }
      ],
      "name": "RewardsClaimed",
      "type": "event"
    },
    {
      "anonymous": false,
      "inputs": [
        {
          "indexed": false,
          "internalType": "uint256",
          "name": "amount",
          "type": "uint256"
        }
      ],
      "name": "RewardsDeposited",
      "type": "event"
    },
    {
      "anonymous": false,
      "inputs": [
        {
          "indexed": true,
          "internalType": "address",
          "name": "user",
          "type": "address"
        },
        {
          "indexed": false,
          "internalType": "uint256",
          "name": "amount",
          "type": "uint256"
        }
      ],
      "name": "Staked",
      "type": "event"
    },
    {
      "anonymous": false,
      "inputs": [
        {
          "indexed": false,
          "internalType": "address",
          "name": "account",
          "type": "address"
        }
      ],
      "name": "Unpaused",
      "type": "event"
    },
    {
      "anonymous": false,
      "inputs": [
        {
          "indexed": true,
          "internalType": "address",
          "name": "user",
          "type": "address"
        },
        {
          "indexed": false,
          "internalType": "uint256",
          "name": "amount",
          "type": "uint256"
        }
      ],
      "name": "Unstaked",
      "type": "event"
    },
    {
      "inputs": [],
      "name": "PRECISION",
      "outputs": [
        {
          "internalType": "uint256",
          "name": "",
          "type": "uint256"
        }
      ],
      "stateMutability": "view",
      "type": "function"
    },
    {
      "inputs": [],
      "name": "SECONDS_PER_YEAR",
      "outputs": [
        {
          "internalType": "uint256",
          "name": "",
          "type": "uint256"
        }
      ],
      "stateMutability": "view",
      "type": "function"
    },
    {
      "inputs": [],
      "name": "availableRewardFunds",
      "outputs": [
        {
          "internalType": "uint256",
          "name": "",
          "type": "uint256"
        }
      ],
      "stateMutability": "view",
      "type": "function"
    },
    {
      "inputs": [
        {
          "internalType": "address",
          "name": "user",
          "type": "address"
        }
      ],
      "name": "calculateRewards",
      "outputs": [
        {
          "internalType": "uint256",
          "name": "",
          "type": "uint256"
        }
      ],
      "stateMutability": "view",
      "type": "function"
    },
    {
      "inputs": [],
      "name": "claimRewards",
      "outputs": [],
      "stateMutability": "nonpayable",
      "type": "function"
    },
    {
      "inputs": [],
      "name": "depositRewards",
      "outputs": [],
      "stateMutability": "payable",
      "type": "function"
    },
    {
      "inputs": [
        {
          "internalType": "uint256",
          "name": "amount",
          "type": "uint256"
        }
      ],
      "name": "emergencyWithdraw",
      "outputs": [],
      "stateMutability": "nonpayable",
      "type": "function"
    },
    {
      "inputs": [],
      "name": "getContractBalance",
      "outputs": [
        {
          "internalType": "uint256",
          "name": "",
          "type": "uint256"
        }
      ],
      "stateMutability": "view",
      "type": "function"
    },
    {
      "inputs": [],
      "name": "getRewardStats",
      "outputs": [
        {
          "internalType": "uint256",
          "name": "deposited",
          "type": "uint256"
        },
        {
          "internalType": "uint256",
          "name": "claimed",
          "type": "uint256"
        },
        {
          "internalType": "uint256",
          "name": "available",
          "type": "uint256"
        }
      ],
      "stateMutability": "view",
      "type": "function"
    },
    {
      "inputs": [
        {
          "internalType": "address",
          "name": "user",
          "type": "address"
        }
      ],
      "name": "getRewards",
      "outputs": [
        {
          "internalType": "uint256",
          "name": "",
          "type": "uint256"
        }
      ],
      "stateMutability": "view",
      "type": "function"
    },
    {
      "inputs": [
        {
          "internalType": "address",
          "name": "user",
          "type": "address"
        }
      ],
      "name": "getStakedAmount",
      "outputs": [
        {
          "internalType": "uint256",
          "name": "",
          "type": "uint256"
        }
      ],
      "stateMutability": "view",
      "type": "function"
    },
    {
      "inputs": [],
      "name": "getTotalStaked",
      "outputs": [
        {
          "internalType": "uint256",
          "name": "",
          "type": "uint256"
        }
      ],
      "stateMutability": "view",
      "type": "function"
    },
    {
      "inputs": [
        {
          "internalType": "address",
          "name": "user",
          "type": "address"
        }
      ],
      "name": "getUserTotalClaimedRewards",
      "outputs": [
        {
          "internalType": "uint256",
          "name": "",
          "type": "uint256"
        }
      ],
      "stateMutability": "view",
      "type": "function"
    },
    {
      "inputs": [],
      "name": "lastUpdateTime",
      "outputs": [
        {
          "internalType": "uint256",
          "name": "",
          "type": "uint256"
        }
      ],
      "stateMutability": "view",
      "type": "function"
    },
    {
      "inputs": [],
      "name": "owner",
      "outputs": [
        {
          "internalType": "address",
          "name": "",
          "type": "address"
        }
      ],
      "stateMutability": "view",
      "type": "function"
    },
    {
      "inputs": [],
      "name": "pause",
      "outputs": [],
      "stateMutability": "nonpayable",
      "type": "function"
    },
    {
      "inputs": [],
      "name": "paused",
      "outputs": [
        {
          "internalType": "bool",
          "name": "",
          "type": "bool"
        }
      ],
      "stateMutability": "view",
      "type": "function"
    },
    {
      "inputs": [
        {
          "internalType": "address",
          "name": "",
          "type": "address"
        }
      ],
      "name": "pendingRewardPayouts",
      "outputs": [
        {
          "internalType": "uint256",
          "name": "",
          "type": "uint256"
        }
      ],
      "stateMutability": "view",
      "type": "function"
    },
    {
      "inputs": [],
      "name": "renounceOwnership",
      "outputs": [],
      "stateMutability": "nonpayable",
      "type": "function"
    },
    {
      "inputs": [],
      "name": "rewardPerTokenStored",
      "outputs": [
        {
          "internalType": "uint256",
          "name": "",
          "type": "uint256"
        }
      ],
      "stateMutability": "view",
      "type": "function"
    },
    {
      "inputs": [],
      "name": "rewardRateBps",
      "outputs": [
        {
          "internalType": "uint256",
          "name": "",
          "type": "uint256"
        }
      ],
      "stateMutability": "view",
      "type": "function"
    },
    {
      "inputs": [
        {
          "internalType": "uint256",
          "name": "newRateBps",
          "type": "uint256"
        }
      ],
      "name": "setRewardRate",
      "outputs": [],
      "stateMutability": "nonpayable",
      "type": "function"
    },
    {
      "inputs": [],
      "name": "stake",
      "outputs": [],
      "stateMutability": "payable",
      "type": "function"
    },
    {
      "inputs": [
        {
          "internalType": "address",
          "name": "",
          "type": "address"
        }
      ],
      "name": "stakes",
      "outputs": [
        {
          "internalType": "uint256",
          "name": "amount",
          "type": "uint256"
        },
        {
          "internalType": "uint256",
          "name": "timestamp",
          "type": "uint256"
        },
        {
          "internalType": "uint256",
          "name": "lastRewardTime",
          "type": "uint256"
        },
        {
          "internalType": "uint256",
          "name": "rewardDebt",
          "type": "uint256"
        }
      ],
      "stateMutability": "view",
      "type": "function"
    },
    {
      "inputs": [
        {
          "internalType": "address",
          "name": "",
          "type": "address"
        }
      ],
      "name": "totalClaimedRewards",
      "outputs": [
        {
          "internalType": "uint256",
          "name": "",
          "type": "uint256"
        }
      ],
      "stateMutability": "view",
      "type": "function"
    },
    {
      "inputs": [],
      "name": "totalRewardsClaimed",
      "outputs": [
        {
          "internalType": "uint256",
          "name": "",
          "type": "uint256"
        }
      ],
      "stateMutability": "view",
      "type": "function"
    },
    {
      "inputs": [],
      "name": "totalRewardsDeposited",
      "outputs": [
        {
          "internalType": "uint256",
          "name": "",
          "type": "uint256"
        }
      ],
      "stateMutability": "view",
      "type": "function"
    },
    {
      "inputs": [],
      "name": "totalStaked",
      "outputs": [
        {
          "internalType": "uint256",
          "name": "",
          "type": "uint256"
        }
      ],
      "stateMutability": "view",
      "type": "function"
    },
    {
      "inputs": [
        {
          "internalType": "address",
          "name": "newOwner",
          "type": "address"
        }
      ],
      "name": "transferOwnership",
      "outputs": [],
      "stateMutability": "nonpayable",
      "type": "function"
    },
    {
      "inputs": [],
      "name": "unpause",
      "outputs": [],
      "stateMutability": "nonpayable",
      "type": "function"
    },
    {
      "inputs": [
        {
          "internalType": "uint256",
          "name": "amount",
          "type": "uint256"
        }
      ],
      "name": "unstake",
      "outputs": [],
      "stateMutability": "nonpayable",
      "type": "function"
    },
    {
      "inputs": [],
      "name": "withdrawPendingReward",
      "outputs": [],
      "stateMutability": "nonpayable",
      "type": "function"
    },
    {
      "stateMutability": "payable",
      "type": "receive"
    }
  ],
  "bytecode": "0x60806040526104b060055534801561001657600080fd5b506001600055338061004257604051631e4fbdf760e01b81526000600482015260240160405180910390fd5b61004b81610055565b50426007556100a7565b600180546001600160a01b038381166001600160a01b0319831681179093556040519116919082907f8be0079c531659141344cd1fd0a4f28419497f9722a3daafe3b4186f6b6457e090600090a35050565b611553806100b66000396000f3fe6080604052600436106101e75760003560e01c80636f9fb98a11610102578063a110b93f11610095578063d037709411610064578063d03770941461057b578063df136d6514610590578063e6a69ab8146105a6578063f2fde38b146105be57600080fd5b8063a110b93f14610506578063a34b0f7614610533578063aaf5eb6814610549578063c8f33c911461056557600080fd5b8063817b1cd2116100d1578063817b1cd2146104935780638456cb59146104a95780638da5cb5b146104be5780639e447fc6146104e657600080fd5b80636f9fb98a14610435578063715018a61461044857806373face861461045d57806379ee54f71461047357600080fd5b8063372500ab1161017a5780634da6a556116101495780634da6a556146103955780635312ea8e146103cb5780635c975abb146103eb57806364ab86751461041557600080fd5b8063372500ab1461034e5780633a4b66f1146103635780633f4ba83a1461036b57806342910c5a1461038057600080fd5b80632673b457116101b65780632673b4571461029b578063283edc3c146102d15780632e17de78146102fe5780633217e57a1461031e57600080fd5b80630917e776146101f3578063152111f71461021757806316934fc4146102215780631f4c74fd1461028557600080fd5b366101ee57005b600080fd5b3480156101ff57600080fd5b506004545b6040519081526020015b60405180910390f35b61021f6105de565b005b34801561022d57600080fd5b5061026561023c36600461145f565b600260208190526000918252604090912080546001820154928201546003909201549092919084565b60408051948552602085019390935291830152606082015260800161020e565b34801561029157600080fd5b5061020460085481565b3480156102a757600080fd5b506102046102b636600461145f565b6001600160a01b031660009081526003602052604090205490565b3480156102dd57600080fd5b506102046102ec36600461145f565b600a6020526000908152604090205481565b34801561030a57600080fd5b5061021f61031936600461148f565b610681565b34801561032a57600080fd5b5061033361095e565b6040805193845260208401929092529082015260600161020e565b34801561035a57600080fd5b5061021f610975565b61021f610bae565b34801561037757600080fd5b5061021f610ce2565b34801561038c57600080fd5b5061021f610d23565b3480156103a157600080fd5b506102046103b036600461145f565b6001600160a01b031660009081526002602052604090205490565b3480156103d757600080fd5b5061021f6103e636600461148f565b610e36565b3480156103f757600080fd5b50600154600160a01b900460ff16604051901515815260200161020e565b34801561042157600080fd5b5061020461043036600461145f565b610f5c565b34801561044157600080fd5b5047610204565b34801561045457600080fd5b5061021f611086565b34801561046957600080fd5b5061020460055481565b34801561047f57600080fd5b5061020461048e36600461145f565b611098565b34801561049f57600080fd5b5061020460045481565b3480156104b557600080fd5b5061021f6110a9565b3480156104ca57600080fd5b506001546040516001600160a01b03909116815260200161020e565b3480156104f257600080fd5b5061021f61050136600461148f565b6110ea565b34801561051257600080fd5b5061020461052136600461145f565b60036020526000908152604090205481565b34801561053f57600080fd5b5061020460095481565b34801561055557600080fd5b50610204670de0b6b3a764000081565b34801561057157600080fd5b5061020460075481565b34801561058757600080fd5b50610204611189565b34801561059c57600080fd5b5061020460065481565b3480156105b257600080fd5b506102046301e1338081565b3480156105ca57600080fd5b5061021f6105d936600461145f565b6111a0565b6105e66111db565b6000341161062a5760405162461bcd60e51b815260206004820152600c60248201526b16995c9bc819195c1bdcda5d60a21b60448201526064015b60405180910390fd5b6106346000611208565b346008600082825461064691906114be565b90915550506040513481527f4e9221f2cca6ca0397acc6004ea0b716798254f5abcf53924fab34f0373e5d4e906020015b60405180910390a1565b6106896112fb565b610691611325565b600081116106ef5760405162461bcd60e51b815260206004820152602560248201527f556e7374616b6520616d6f756e74206d75737420626520677265617465722074604482015264068616e20360dc1b6064820152608401610621565b336000908152600260205260409020805482111561074f5760405162461bcd60e51b815260206004820152601a60248201527f496e73756666696369656e74207374616b656420616d6f756e740000000000006044820152606401610621565b600061075a33610f5c565b90508282600001600082825461077091906114d1565b909155505042600283015581546000036107aa57336000908152600260208190526040822082815560018101839055908101829055600301555b82600460008282546107bc91906114d1565b909155506107cb905033611208565b600081156108345760006107dd611189565b90508083116107ec57826107ee565b805b9150811561083257816009600082825461080891906114be565b9091555050336000908152600360205260408120805484929061082c9084906114be565b90915550505b505b600061084082866114be565b604051909150600090339083908381818185875af1925050503d8060008114610885576040519150601f19603f3d011682016040523d82523d6000602084013e61088a565b606091505b50509050806108db5760405162461bcd60e51b815260206004820152601860248201527f556e7374616b653a207472616e73666572206661696c656400000000000000006044820152606401610621565b82156109175760405183815233907ffc30cddea38e2bf4d6ea7d3f9ed3b6ad7f176419f4963bd81318067a4aee73fe9060200160405180910390a25b60405186815233907f0f5bb82176feb1b5e747e28471aa92156a04d9f3ab9f45f28e2d704232b93f759060200160405180910390a2505050505061095b6001600055565b50565b600854600954600061096e611189565b9050909192565b61097d6112fb565b610985611325565b61098e33611208565b600061099933610f5c565b9050600081116109e15760405162461bcd60e51b81526020600482015260136024820152724e6f207265776172647320746f20636c61696d60681b6044820152606401610621565b60006109eb611189565b905060008111610a3d5760405162461bcd60e51b815260206004820152601960248201527f4e6f207265776172642066756e647320617661696c61626c65000000000000006044820152606401610621565b6000818311610a4c5782610a4e565b815b90508060096000828254610a6291906114be565b90915550503360009081526003602052604081208054839290610a869084906114be565b909155505033600090815260026020819052604090912042918101919091556006549054670de0b6b3a764000091610abd916114e4565b610ac791906114fb565b3360008181526002602052604080822060030193909355915183908381818185875af1925050503d8060008114610b1a576040519150601f19603f3d011682016040523d82523d6000602084013e610b1f565b606091505b5050905080610b695760405162461bcd60e51b815260206004820152601660248201527514995dd85c99081d1c985b9cd9995c8819985a5b195960521b6044820152606401610621565b60405182815233907ffc30cddea38e2bf4d6ea7d3f9ed3b6ad7f176419f4963bd81318067a4aee73fe9060200160405180910390a250505050610bac6001600055565b565b610bb66112fb565b610bbe611325565b60003411610c1a5760405162461bcd60e51b815260206004820152602360248201527f5374616b6520616d6f756e74206d75737420626520677265617465722074686160448201526206e20360ec1b6064820152608401610621565b610c2333611208565b3360009081526002602052604081208054909103610c42574260018201555b34816000016000828254610c5691906114be565b90915550504260028201556006548154670de0b6b3a764000091610c79916114e4565b610c8391906114fb565b81600301819055503460046000828254610c9d91906114be565b909155505060405134815233907f9e71bc8eea02a63969f509818f2dafb9254532904319f9dbda79b67bd34a5f3d9060200160405180910390a250610bac6001600055565b610cea6111db565b610cf2611350565b604051600081527f752d7e161ff5146f80e3820893176eb40532811e5e20400dfdde57455213706a90602001610677565b610d2b6112fb565b336000908152600a602052604090205480610d7d5760405162461bcd60e51b81526020600482015260126024820152714e6f2070656e64696e67207265776172647360701b6044820152606401610621565b336000818152600a60205260408082208290555190919083908381818185875af1925050503d8060008114610dce576040519150601f19603f3d011682016040523d82523d6000602084013e610dd3565b606091505b505090508015610e175760405182815233907f1d3eee4ca001cff39eec6ec7615aacf2f2bd61791273830728ba00ccbd6e13379060200160405180910390a2610e2a565b336000908152600a602052604090208290555b5050610bac6001600055565b610e3e6111db565b6000610e48611189565b905080821115610e9a5760405162461bcd60e51b815260206004820152601760248201527f4578636565647320617661696c61626c652066756e64730000000000000000006044820152606401610621565b6000610eae6001546001600160a01b031690565b6001600160a01b03168360405160006040518083038185875af1925050503d8060008114610ef8576040519150601f19603f3d011682016040523d82523d6000602084013e610efd565b606091505b5050905080610f405760405162461bcd60e51b815260206004820152600f60248201526e15da5d1a191c985dc819985a5b1959608a1b6044820152606401610621565b8260086000828254610f5291906114d1565b9091555050505050565b6001600160a01b03811660009081526002602081815260408084208151608081018352815480825260018301549482019490945293810154918401919091526003015460608301528203610fb35750600092915050565b60065460075442118015610fc957506000600454115b1561104957600060075442610fde91906114d1565b90506000610ff26301e133806127106114e4565b670de0b6b3a76400006005546004548561100c91906114e4565b61101691906114e4565b61102091906114e4565b61102a91906114fb565b90506004548161103a91906114fb565b61104490846114be565b925050505b60008260600151670de0b6b3a764000083856000015161106991906114e4565b61107391906114fb565b61107d91906114d1565b95945050505050565b61108e6111db565b610bac60006113a0565b60006110a382610f5c565b92915050565b6110b16111db565b6110b96113f2565b604051600181527f752d7e161ff5146f80e3820893176eb40532811e5e20400dfdde57455213706a90602001610677565b6110f26111db565b6113888111156111445760405162461bcd60e51b815260206004820152601760248201527f5261746520746f6f206869676820286d617820353025290000000000000000006044820152606401610621565b61114e6000611208565b60058190556040518181527f41d466ebd06fb97e7786086ac8b69b7eb7da798592036251291d34e9791cde019060200160405180910390a150565b600060095460085461119b91906114d1565b905090565b6111a86111db565b6001600160a01b0381166111d257604051631e4fbdf760e01b815260006004820152602401610621565b61095b816113a0565b6001546001600160a01b03163314610bac5760405163118cdaa760e01b8152336004820152602401610621565b600454600003611219575042600755565b60006007544261122991906114d1565b905080156112a75760006112436301e133806127106114e4565b670de0b6b3a76400006005546004548561125d91906114e4565b61126791906114e4565b61127191906114e4565b61127b91906114fb565b90506004548161128b91906114fb565b6006600082825461129c91906114be565b909155505042600755505b6001600160a01b038216156112f7576001600160a01b03821660009081526002602052604090206006548154670de0b6b3a7640000916112e6916114e4565b6112f091906114fb565b6003909101555b5050565b60026000540361131e57604051633ee5aeb560e01b815260040160405180910390fd5b6002600055565b600154600160a01b900460ff1615610bac5760405163d93c066560e01b815260040160405180910390fd5b611358611435565b6001805460ff60a01b191690557f5db9ee0a495bf2e6ff9c91a7834c1ba4fdd244a5e8aa4e537bd38aeae4b073aa335b6040516001600160a01b039091168152602001610677565b600180546001600160a01b038381166001600160a01b0319831681179093556040519116919082907f8be0079c531659141344cd1fd0a4f28419497f9722a3daafe3b4186f6b6457e090600090a35050565b6113fa611325565b6001805460ff60a01b1916600160a01b1790557f62e78cea01bee320cd4e420270b5ea74000d11b0c9f74754ebdbfc544b05a2586113883390565b600154600160a01b900460ff16610bac57604051638dfc202b60e01b815260040160405180910390fd5b60006020828403121561147157600080fd5b81356001600160a01b038116811461148857600080fd5b9392505050565b6000602082840312156114a157600080fd5b5035919050565b634e487b7160e01b600052601160045260246000fd5b808201808211156110a3576110a36114a8565b818103818111156110a3576110a36114a8565b80820281158282048414176110a3576110a36114a8565b60008261151857634e487b7160e01b600052601260045260246000fd5b50049056fea264697066735822122029ae174fca63b4192b3167563f6668fdcff901bba8dc6675b9cd0a3b0f39174964736f6c63430008140033",
  "linkReferences": {},
  "deployedLinkReferences": {}
}